{
    "_format": "hh-sol-artifact-1",
    "contractName": "RocketFrogClub",
    "sourceName": "contracts/RocketFrogs.sol",
    "abi": [
        {
            "inputs": [],
            "stateMutability": "nonpayable",
            "type": "constructor"
        },
        {
            "inputs": [],
            "name": "ApprovalCallerNotOwnerNorApproved",
            "type": "error"
        },
        {
            "inputs": [],
            "name": "ApprovalQueryForNonexistentToken",
            "type": "error"
        },
        {
            "inputs": [],
            "name": "BalanceQueryForZeroAddress",
            "type": "error"
        },
        {
            "inputs": [],
            "name": "MintERC2309QuantityExceedsLimit",
            "type": "error"
        },
        {
            "inputs": [],
            "name": "MintToZeroAddress",
            "type": "error"
        },
        {
            "inputs": [],
            "name": "MintZeroQuantity",
            "type": "error"
        },
        {
            "inputs": [],
            "name": "OwnerQueryForNonexistentToken",
            "type": "error"
        },
        {
            "inputs": [],
            "name": "OwnershipNotInitializedForExtraData",
            "type": "error"
        },
        {
            "inputs": [],
            "name": "TransferCallerNotOwnerNorApproved",
            "type": "error"
        },
        {
            "inputs": [],
            "name": "TransferFromIncorrectOwner",
            "type": "error"
        },
        {
            "inputs": [],
            "name": "TransferToNonERC721ReceiverImplementer",
            "type": "error"
        },
        {
            "inputs": [],
            "name": "TransferToZeroAddress",
            "type": "error"
        },
        {
            "inputs": [],
            "name": "URIQueryForNonexistentToken",
            "type": "error"
        },
        {
            "anonymous": false,
            "inputs": [
                {
                    "indexed": true,
                    "internalType": "address",
                    "name": "owner",
                    "type": "address"
                },
                {
                    "indexed": true,
                    "internalType": "address",
                    "name": "approved",
                    "type": "address"
                },
                {
                    "indexed": true,
                    "internalType": "uint256",
                    "name": "tokenId",
                    "type": "uint256"
                }
            ],
            "name": "Approval",
            "type": "event"
        },
        {
            "anonymous": false,
            "inputs": [
                {
                    "indexed": true,
                    "internalType": "address",
                    "name": "owner",
                    "type": "address"
                },
                {
                    "indexed": true,
                    "internalType": "address",
                    "name": "operator",
                    "type": "address"
                },
                {
                    "indexed": false,
                    "internalType": "bool",
                    "name": "approved",
                    "type": "bool"
                }
            ],
            "name": "ApprovalForAll",
            "type": "event"
        },
        {
            "anonymous": false,
            "inputs": [
                {
                    "indexed": true,
                    "internalType": "uint256",
                    "name": "fromTokenId",
                    "type": "uint256"
                },
                {
                    "indexed": false,
                    "internalType": "uint256",
                    "name": "toTokenId",
                    "type": "uint256"
                },
                {
                    "indexed": true,
                    "internalType": "address",
                    "name": "from",
                    "type": "address"
                },
                {
                    "indexed": true,
                    "internalType": "address",
                    "name": "to",
                    "type": "address"
                }
            ],
            "name": "ConsecutiveTransfer",
            "type": "event"
        },
        {
            "anonymous": false,
            "inputs": [
                {
                    "indexed": true,
                    "internalType": "address",
                    "name": "previousOwner",
                    "type": "address"
                },
                {
                    "indexed": true,
                    "internalType": "address",
                    "name": "newOwner",
                    "type": "address"
                }
            ],
            "name": "OwnershipTransferred",
            "type": "event"
        },
        {
            "anonymous": false,
            "inputs": [
                {
                    "indexed": true,
                    "internalType": "address",
                    "name": "from",
                    "type": "address"
                },
                {
                    "indexed": true,
                    "internalType": "address",
                    "name": "to",
                    "type": "address"
                },
                {
                    "indexed": true,
                    "internalType": "uint256",
                    "name": "tokenId",
                    "type": "uint256"
                }
            ],
            "name": "Transfer",
            "type": "event"
        },
        {
            "inputs": [
                {
                    "internalType": "address",
                    "name": "to",
                    "type": "address"
                },
                {
                    "internalType": "uint256",
                    "name": "tokenId",
                    "type": "uint256"
                }
            ],
            "name": "approve",
            "outputs": [],
            "stateMutability": "payable",
            "type": "function"
        },
        {
            "inputs": [
                {
                    "internalType": "address",
                    "name": "owner",
                    "type": "address"
                }
            ],
            "name": "balanceOf",
            "outputs": [
                {
                    "internalType": "uint256",
                    "name": "",
                    "type": "uint256"
                }
            ],
            "stateMutability": "view",
            "type": "function"
        },
        {
            "inputs": [],
            "name": "baseURI",
            "outputs": [
                {
                    "internalType": "string",
                    "name": "",
                    "type": "string"
                }
            ],
            "stateMutability": "view",
            "type": "function"
        },
        {
            "inputs": [
                {
                    "internalType": "uint256",
                    "name": "tokenId",
                    "type": "uint256"
                }
            ],
            "name": "getApproved",
            "outputs": [
                {
                    "internalType": "address",
                    "name": "",
                    "type": "address"
                }
            ],
            "stateMutability": "view",
            "type": "function"
        },
        {
            "inputs": [
                {
                    "internalType": "address",
                    "name": "owner",
                    "type": "address"
                },
                {
                    "internalType": "address",
                    "name": "operator",
                    "type": "address"
                }
            ],
            "name": "isApprovedForAll",
            "outputs": [
                {
                    "internalType": "bool",
                    "name": "",
                    "type": "bool"
                }
            ],
            "stateMutability": "view",
            "type": "function"
        },
        {
            "inputs": [
                {
                    "internalType": "uint256",
                    "name": "quantity",
                    "type": "uint256"
                }
            ],
            "name": "mint",
            "outputs": [],
            "stateMutability": "payable",
            "type": "function"
        },
        {
            "inputs": [],
            "name": "mintRate",
            "outputs": [
                {
                    "internalType": "uint256",
                    "name": "",
                    "type": "uint256"
                }
            ],
            "stateMutability": "view",
            "type": "function"
        },
        {
            "inputs": [],
            "name": "mintRates",
            "outputs": [
                {
                    "internalType": "uint256",
                    "name": "",
                    "type": "uint256"
                }
            ],
            "stateMutability": "view",
            "type": "function"
        },
        {
            "inputs": [],
            "name": "name",
            "outputs": [
                {
                    "internalType": "string",
                    "name": "",
                    "type": "string"
                }
            ],
            "stateMutability": "view",
            "type": "function"
        },
        {
            "inputs": [],
            "name": "owner",
            "outputs": [
                {
                    "internalType": "address",
                    "name": "",
                    "type": "address"
                }
            ],
            "stateMutability": "view",
            "type": "function"
        },
        {
            "inputs": [
                {
                    "internalType": "uint256",
                    "name": "tokenId",
                    "type": "uint256"
                }
            ],
            "name": "ownerOf",
            "outputs": [
                {
                    "internalType": "address",
                    "name": "",
                    "type": "address"
                }
            ],
            "stateMutability": "view",
            "type": "function"
        },
        {
            "inputs": [],
            "name": "renounceOwnership",
            "outputs": [],
            "stateMutability": "nonpayable",
            "type": "function"
        },
        {
            "inputs": [
                {
                    "internalType": "address",
                    "name": "from",
                    "type": "address"
                },
                {
                    "internalType": "address",
                    "name": "to",
                    "type": "address"
                },
                {
                    "internalType": "uint256",
                    "name": "tokenId",
                    "type": "uint256"
                }
            ],
            "name": "safeTransferFrom",
            "outputs": [],
            "stateMutability": "payable",
            "type": "function"
        },
        {
            "inputs": [
                {
                    "internalType": "address",
                    "name": "from",
                    "type": "address"
                },
                {
                    "internalType": "address",
                    "name": "to",
                    "type": "address"
                },
                {
                    "internalType": "uint256",
                    "name": "tokenId",
                    "type": "uint256"
                },
                {
                    "internalType": "bytes",
                    "name": "_data",
                    "type": "bytes"
                }
            ],
            "name": "safeTransferFrom",
            "outputs": [],
            "stateMutability": "payable",
            "type": "function"
        },
        {
            "inputs": [
                {
                    "internalType": "address",
                    "name": "operator",
                    "type": "address"
                },
                {
                    "internalType": "bool",
                    "name": "approved",
                    "type": "bool"
                }
            ],
            "name": "setApprovalForAll",
            "outputs": [],
            "stateMutability": "nonpayable",
            "type": "function"
        },
        {
            "inputs": [
                {
                    "internalType": "uint256",
                    "name": "_mintRate",
                    "type": "uint256"
                }
            ],
            "name": "setMintRate",
            "outputs": [],
            "stateMutability": "nonpayable",
            "type": "function"
        },
        {
            "inputs": [
                {
                    "internalType": "bytes4",
                    "name": "interfaceId",
                    "type": "bytes4"
                }
            ],
            "name": "supportsInterface",
            "outputs": [
                {
                    "internalType": "bool",
                    "name": "",
                    "type": "bool"
                }
            ],
            "stateMutability": "view",
            "type": "function"
        },
        {
            "inputs": [],
            "name": "symbol",
            "outputs": [
                {
                    "internalType": "string",
                    "name": "",
                    "type": "string"
                }
            ],
            "stateMutability": "view",
            "type": "function"
        },
        {
            "inputs": [
                {
                    "internalType": "uint256",
                    "name": "tokenId",
                    "type": "uint256"
                }
            ],
            "name": "tokenURI",
            "outputs": [
                {
                    "internalType": "string",
                    "name": "",
                    "type": "string"
                }
            ],
            "stateMutability": "view",
            "type": "function"
        },
        {
            "inputs": [],
            "name": "totalSupply",
            "outputs": [
                {
                    "internalType": "uint256",
                    "name": "",
                    "type": "uint256"
                }
            ],
            "stateMutability": "view",
            "type": "function"
        },
        {
            "inputs": [
                {
                    "internalType": "address",
                    "name": "from",
                    "type": "address"
                },
                {
                    "internalType": "address",
                    "name": "to",
                    "type": "address"
                },
                {
                    "internalType": "uint256",
                    "name": "tokenId",
                    "type": "uint256"
                }
            ],
            "name": "transferFrom",
            "outputs": [],
            "stateMutability": "payable",
            "type": "function"
        },
        {
            "inputs": [
                {
                    "internalType": "address",
                    "name": "newOwner",
                    "type": "address"
                }
            ],
            "name": "transferOwnership",
            "outputs": [],
            "stateMutability": "nonpayable",
            "type": "function"
        },
        {
            "inputs": [],
            "name": "withdraw",
            "outputs": [],
            "stateMutability": "payable",
            "type": "function"
        }
    ],
    "bytecode": "0x60806040526064600955611388600a556618838370f34000600b556618838370f34000600c55604051806080016040528060438152602001620029fe60439139600d90816200004f919062000479565b503480156200005d57600080fd5b506040518060400160405280601181526020017f526f636b65742046726f677320436c75620000000000000000000000000000008152506040518060400160405280600381526020017f52464300000000000000000000000000000000000000000000000000000000008152508160029081620000db919062000479565b508060039081620000ed919062000479565b50620000fe6200012c60201b60201c565b6000819055505050620001266200011a6200013160201b60201c565b6200013960201b60201c565b62000560565b600090565b600033905090565b6000600860009054906101000a900473ffffffffffffffffffffffffffffffffffffffff16905081600860006101000a81548173ffffffffffffffffffffffffffffffffffffffff021916908373ffffffffffffffffffffffffffffffffffffffff1602179055508173ffffffffffffffffffffffffffffffffffffffff168173ffffffffffffffffffffffffffffffffffffffff167f8be0079c531659141344cd1fd0a4f28419497f9722a3daafe3b4186f6b6457e060405160405180910390a35050565b600081519050919050565b7f4e487b7100000000000000000000000000000000000000000000000000000000600052604160045260246000fd5b7f4e487b7100000000000000000000000000000000000000000000000000000000600052602260045260246000fd5b600060028204905060018216806200028157607f821691505b60208210810362000297576200029662000239565b5b50919050565b60008190508160005260206000209050919050565b60006020601f8301049050919050565b600082821b905092915050565b600060088302620003017fffffffffffffffffffffffffffffffffffffffffffffffffffffffffffffffff82620002c2565b6200030d8683620002c2565b95508019841693508086168417925050509392505050565b6000819050919050565b6000819050919050565b60006200035a620003546200034e8462000325565b6200032f565b62000325565b9050919050565b6000819050919050565b620003768362000339565b6200038e620003858262000361565b848454620002cf565b825550505050565b600090565b620003a562000396565b620003b28184846200036b565b505050565b5b81811015620003da57620003ce6000826200039b565b600181019050620003b8565b5050565b601f8211156200042957620003f3816200029d565b620003fe84620002b2565b810160208510156200040e578190505b620004266200041d85620002b2565b830182620003b7565b50505b505050565b600082821c905092915050565b60006200044e600019846008026200042e565b1980831691505092915050565b60006200046983836200043b565b9150826002028217905092915050565b6200048482620001ff565b67ffffffffffffffff811115620004a0576200049f6200020a565b5b620004ac825462000268565b620004b9828285620003de565b600060209050601f831160018114620004f15760008415620004dc578287015190505b620004e885826200045b565b86555062000558565b601f19841662000501866200029d565b60005b828110156200052b5784890151825560018201915060208501945060208101905062000504565b868310156200054b578489015162000547601f8916826200043b565b8355505b6001600288020188555050505b505050505050565b61248e80620005706000396000f3fe6080604052600436106101405760003560e01c806370a08231116100b6578063b88d4fde1161006f578063b88d4fde146103f5578063c87b56dd14610411578063ca0dcf161461044e578063dbe2193f14610479578063e985e9c5146104a2578063f2fde38b146104df57610140565b806370a0823114610306578063715018a6146103435780638da5cb5b1461035a57806395d89b4114610385578063a0712d68146103b0578063a22cb465146103cc57610140565b806323b872dd1161010857806323b872dd146102315780633ccfd60b1461024d57806342842e0e1461025757806362eff9fe146102735780636352211e1461029e5780636c0360eb146102db57610140565b806301ffc9a71461014557806306fdde0314610182578063081812fc146101ad578063095ea7b3146101ea57806318160ddd14610206575b600080fd5b34801561015157600080fd5b5061016c60048036038101906101679190611a80565b610508565b6040516101799190611ac8565b60405180910390f35b34801561018e57600080fd5b5061019761059a565b6040516101a49190611b73565b60405180910390f35b3480156101b957600080fd5b506101d460048036038101906101cf9190611bcb565b61062c565b6040516101e19190611c39565b60405180910390f35b61020460048036038101906101ff9190611c80565b6106ab565b005b34801561021257600080fd5b5061021b6106bb565b6040516102289190611ccf565b60405180910390f35b61024b60048036038101906102469190611cea565b6106d2565b005b6102556109f4565b005b610271600480360381019061026c9190611cea565b610a4c565b005b34801561027f57600080fd5b50610288610a6c565b6040516102959190611ccf565b60405180910390f35b3480156102aa57600080fd5b506102c560048036038101906102c09190611bcb565b610a72565b6040516102d29190611c39565b60405180910390f35b3480156102e757600080fd5b506102f0610a84565b6040516102fd9190611b73565b60405180910390f35b34801561031257600080fd5b5061032d60048036038101906103289190611d3d565b610b12565b60405161033a9190611ccf565b60405180910390f35b34801561034f57600080fd5b50610358610bca565b005b34801561036657600080fd5b5061036f610bde565b60405161037c9190611c39565b60405180910390f35b34801561039157600080fd5b5061039a610c08565b6040516103a79190611b73565b60405180910390f35b6103ca60048036038101906103c59190611bcb565b610c9a565b005b3480156103d857600080fd5b506103f360048036038101906103ee9190611d96565b610da6565b005b61040f600480360381019061040a9190611f0b565b610eb1565b005b34801561041d57600080fd5b5061043860048036038101906104339190611bcb565b610f24565b6040516104459190611b73565b60405180910390f35b34801561045a57600080fd5b50610463610fc2565b6040516104709190611ccf565b60405180910390f35b34801561048557600080fd5b506104a0600480360381019061049b9190611bcb565b610fc8565b005b3480156104ae57600080fd5b506104c960048036038101906104c49190611f8e565b610fda565b6040516104d69190611ac8565b60405180910390f35b3480156104eb57600080fd5b5061050660048036038101906105019190611d3d565b61106e565b005b60006301ffc9a760e01b827bffffffffffffffffffffffffffffffffffffffffffffffffffffffff1916148061056357506380ac58cd60e01b827bffffffffffffffffffffffffffffffffffffffffffffffffffffffff1916145b806105935750635b5e139f60e01b827bffffffffffffffffffffffffffffffffffffffffffffffffffffffff1916145b9050919050565b6060600280546105a990611ffd565b80601f01602080910402602001604051908101604052809291908181526020018280546105d590611ffd565b80156106225780601f106105f757610100808354040283529160200191610622565b820191906000526020600020905b81548152906001019060200180831161060557829003601f168201915b5050505050905090565b6000610637826110f1565b61066d576040517fcf4700e400000000000000000000000000000000000000000000000000000000815260040160405180910390fd5b6006600083815260200190815260200160002060000160009054906101000a900473ffffffffffffffffffffffffffffffffffffffff169050919050565b6106b782826001611150565b5050565b60006106c561129c565b6001546000540303905090565b60006106dd826112a1565b90508373ffffffffffffffffffffffffffffffffffffffff168173ffffffffffffffffffffffffffffffffffffffff1614610744576040517fa114810000000000000000000000000000000000000000000000000000000000815260040160405180910390fd5b60008061075084611399565b9150915061076681876107616113c0565b6113c8565b6107b25761077b866107766113c0565b610fda565b6107b1576040517f59c896be00000000000000000000000000000000000000000000000000000000815260040160405180910390fd5b5b600073ffffffffffffffffffffffffffffffffffffffff168573ffffffffffffffffffffffffffffffffffffffff1603610818576040517fea553b3400000000000000000000000000000000000000000000000000000000815260040160405180910390fd5b610825868686600161140c565b801561083057600082555b600560008773ffffffffffffffffffffffffffffffffffffffff1673ffffffffffffffffffffffffffffffffffffffff168152602001908152602001600020600081546001900391905081905550600560008673ffffffffffffffffffffffffffffffffffffffff1673ffffffffffffffffffffffffffffffffffffffff16815260200190815260200160002060008154600101919050819055506108fe856108da888887611412565b7c02000000000000000000000000000000000000000000000000000000001761143a565b600460008681526020019081526020016000208190555060007c02000000000000000000000000000000000000000000000000000000008416036109845760006001850190506000600460008381526020019081526020016000205403610982576000548114610981578360046000838152602001908152602001600020819055505b5b505b838573ffffffffffffffffffffffffffffffffffffffff168773ffffffffffffffffffffffffffffffffffffffff167fddf252ad1be2c89b69c2b068fc378daa952ba7f163c4a11628f55a4df523b3ef60405160405180910390a46109ec8686866001611465565b505050505050565b6109fc61146b565b610a04610bde565b73ffffffffffffffffffffffffffffffffffffffff166108fc479081150290604051600060405180830381858888f19350505050158015610a49573d6000803e3d6000fd5b50565b610a6783838360405180602001604052806000815250610eb1565b505050565b600c5481565b6000610a7d826112a1565b9050919050565b600d8054610a9190611ffd565b80601f0160208091040260200160405190810160405280929190818152602001828054610abd90611ffd565b8015610b0a5780601f10610adf57610100808354040283529160200191610b0a565b820191906000526020600020905b815481529060010190602001808311610aed57829003601f168201915b505050505081565b60008073ffffffffffffffffffffffffffffffffffffffff168273ffffffffffffffffffffffffffffffffffffffff1603610b79576040517f8f4eb60400000000000000000000000000000000000000000000000000000000815260040160405180910390fd5b67ffffffffffffffff600560008473ffffffffffffffffffffffffffffffffffffffff1673ffffffffffffffffffffffffffffffffffffffff16815260200190815260200160002054169050919050565b610bd261146b565b610bdc60006114e9565b565b6000600860009054906101000a900473ffffffffffffffffffffffffffffffffffffffff16905090565b606060038054610c1790611ffd565b80601f0160208091040260200160405190810160405280929190818152602001828054610c4390611ffd565b8015610c905780601f10610c6557610100808354040283529160200191610c90565b820191906000526020600020905b815481529060010190602001808311610c7357829003601f168201915b5050505050905090565b600954610ca6336115af565b82610cb1919061205d565b1115610cf2576040517f08c379a0000000000000000000000000000000000000000000000000000000008152600401610ce9906120dd565b60405180910390fd5b600a5481610cfe6106bb565b610d08919061205d565b1115610d49576040517f08c379a0000000000000000000000000000000000000000000000000000000008152600401610d4090612149565b60405180910390fd5b80600b54610d579190612169565b341015610d99576040517f08c379a0000000000000000000000000000000000000000000000000000000008152600401610d90906121f7565b60405180910390fd5b610da33382611606565b50565b8060076000610db36113c0565b73ffffffffffffffffffffffffffffffffffffffff1673ffffffffffffffffffffffffffffffffffffffff16815260200190815260200160002060008473ffffffffffffffffffffffffffffffffffffffff1673ffffffffffffffffffffffffffffffffffffffff16815260200190815260200160002060006101000a81548160ff0219169083151502179055508173ffffffffffffffffffffffffffffffffffffffff16610e606113c0565b73ffffffffffffffffffffffffffffffffffffffff167f17307eab39ab6107e8899845ad3d59bd9653f200f220920489ca2b5937696c3183604051610ea59190611ac8565b60405180910390a35050565b610ebc8484846106d2565b60008373ffffffffffffffffffffffffffffffffffffffff163b14610f1e57610ee7848484846117c1565b610f1d576040517fd1a57ed600000000000000000000000000000000000000000000000000000000815260040160405180910390fd5b5b50505050565b6060610f2f826110f1565b610f65576040517fa14c4b5000000000000000000000000000000000000000000000000000000000815260040160405180910390fd5b6000610f6f611911565b90506000815103610f8f5760405180602001604052806000815250610fba565b80610f99846119a3565b604051602001610faa929190612253565b6040516020818303038152906040525b915050919050565b600b5481565b610fd061146b565b80600b8190555050565b6000600760008473ffffffffffffffffffffffffffffffffffffffff1673ffffffffffffffffffffffffffffffffffffffff16815260200190815260200160002060008373ffffffffffffffffffffffffffffffffffffffff1673ffffffffffffffffffffffffffffffffffffffff16815260200190815260200160002060009054906101000a900460ff16905092915050565b61107661146b565b600073ffffffffffffffffffffffffffffffffffffffff168173ffffffffffffffffffffffffffffffffffffffff16036110e5576040517f08c379a00000000000000000000000000000000000000000000000000000000081526004016110dc906122e9565b60405180910390fd5b6110ee816114e9565b50565b6000816110fc61129c565b1115801561110b575060005482105b8015611149575060007c0100000000000000000000000000000000000000000000000000000000600460008581526020019081526020016000205416145b9050919050565b600061115b83610a72565b905081156111e6578073ffffffffffffffffffffffffffffffffffffffff166111826113c0565b73ffffffffffffffffffffffffffffffffffffffff16146111e5576111ae816111a96113c0565b610fda565b6111e4576040517fcfb3b94200000000000000000000000000000000000000000000000000000000815260040160405180910390fd5b5b5b836006600085815260200190815260200160002060000160006101000a81548173ffffffffffffffffffffffffffffffffffffffff021916908373ffffffffffffffffffffffffffffffffffffffff160217905550828473ffffffffffffffffffffffffffffffffffffffff168273ffffffffffffffffffffffffffffffffffffffff167f8c5be1e5ebec7d5bd14f71427d1e84f3dd0314c0f7b2291e5b200ac8c7c3b92560405160405180910390a450505050565b600090565b6000816112ac61129c565b11611362576004600083815260200190815260200160002054905060007c0100000000000000000000000000000000000000000000000000000000821603611361576000810361135c576000548210611331576040517fdf2d9b4200000000000000000000000000000000000000000000000000000000815260040160405180910390fd5b5b60046000836001900393508381526020019081526020016000205490506000810361139457611332565b611394565b5b6040517fdf2d9b4200000000000000000000000000000000000000000000000000000000815260040160405180910390fd5b919050565b60008060006006600085815260200190815260200160002090508092508254915050915091565b600033905090565b600073ffffffffffffffffffffffffffffffffffffffff8316925073ffffffffffffffffffffffffffffffffffffffff821691508382148383141790509392505050565b50505050565b60008060e883901c905060e86114298686846119f3565b62ffffff16901b9150509392505050565b600073ffffffffffffffffffffffffffffffffffffffff83169250814260a01b178317905092915050565b50505050565b6114736119fc565b73ffffffffffffffffffffffffffffffffffffffff16611491610bde565b73ffffffffffffffffffffffffffffffffffffffff16146114e7576040517f08c379a00000000000000000000000000000000000000000000000000000000081526004016114de90612355565b60405180910390fd5b565b6000600860009054906101000a900473ffffffffffffffffffffffffffffffffffffffff16905081600860006101000a81548173ffffffffffffffffffffffffffffffffffffffff021916908373ffffffffffffffffffffffffffffffffffffffff1602179055508173ffffffffffffffffffffffffffffffffffffffff168173ffffffffffffffffffffffffffffffffffffffff167f8be0079c531659141344cd1fd0a4f28419497f9722a3daafe3b4186f6b6457e060405160405180910390a35050565b600067ffffffffffffffff6040600560008573ffffffffffffffffffffffffffffffffffffffff1673ffffffffffffffffffffffffffffffffffffffff16815260200190815260200160002054901c169050919050565b60008054905060008203611646576040517fb562e8dd00000000000000000000000000000000000000000000000000000000815260040160405180910390fd5b611653600084838561140c565b600160406001901b178202600560008573ffffffffffffffffffffffffffffffffffffffff1673ffffffffffffffffffffffffffffffffffffffff168152602001908152602001600020600082825401925050819055506116ca836116bb6000866000611412565b6116c485611a04565b1761143a565b6004600083815260200190815260200160002081905550600080838301905073ffffffffffffffffffffffffffffffffffffffff85169150828260007fddf252ad1be2c89b69c2b068fc378daa952ba7f163c4a11628f55a4df523b3ef600080a4600183015b81811461176b57808360007fddf252ad1be2c89b69c2b068fc378daa952ba7f163c4a11628f55a4df523b3ef600080a4600181019050611730565b50600082036117a6576040517f2e07630000000000000000000000000000000000000000000000000000000000815260040160405180910390fd5b8060008190555050506117bc6000848385611465565b505050565b60008373ffffffffffffffffffffffffffffffffffffffff1663150b7a026117e76113c0565b8786866040518563ffffffff1660e01b815260040161180994939291906123ca565b6020604051808303816000875af192505050801561184557506040513d601f19601f82011682018060405250810190611842919061242b565b60015b6118be573d8060008114611875576040519150601f19603f3d011682016040523d82523d6000602084013e61187a565b606091505b5060008151036118b6576040517fd1a57ed600000000000000000000000000000000000000000000000000000000815260040160405180910390fd5b805181602001fd5b63150b7a0260e01b7bffffffffffffffffffffffffffffffffffffffffffffffffffffffff1916817bffffffffffffffffffffffffffffffffffffffffffffffffffffffff191614915050949350505050565b6060600d805461192090611ffd565b80601f016020809104026020016040519081016040528092919081815260200182805461194c90611ffd565b80156119995780601f1061196e57610100808354040283529160200191611999565b820191906000526020600020905b81548152906001019060200180831161197c57829003601f168201915b5050505050905090565b606060a060405101806040526020810391506000825281835b6001156119de57600184039350600a81066030018453600a81049050806119bc575b50828103602084039350808452505050919050565b60009392505050565b600033905090565b60006001821460e11b9050919050565b6000604051905090565b600080fd5b600080fd5b60007fffffffff0000000000000000000000000000000000000000000000000000000082169050919050565b611a5d81611a28565b8114611a6857600080fd5b50565b600081359050611a7a81611a54565b92915050565b600060208284031215611a9657611a95611a1e565b5b6000611aa484828501611a6b565b91505092915050565b60008115159050919050565b611ac281611aad565b82525050565b6000602082019050611add6000830184611ab9565b92915050565b600081519050919050565b600082825260208201905092915050565b60005b83811015611b1d578082015181840152602081019050611b02565b60008484015250505050565b6000601f19601f8301169050919050565b6000611b4582611ae3565b611b4f8185611aee565b9350611b5f818560208601611aff565b611b6881611b29565b840191505092915050565b60006020820190508181036000830152611b8d8184611b3a565b905092915050565b6000819050919050565b611ba881611b95565b8114611bb357600080fd5b50565b600081359050611bc581611b9f565b92915050565b600060208284031215611be157611be0611a1e565b5b6000611bef84828501611bb6565b91505092915050565b600073ffffffffffffffffffffffffffffffffffffffff82169050919050565b6000611c2382611bf8565b9050919050565b611c3381611c18565b82525050565b6000602082019050611c4e6000830184611c2a565b92915050565b611c5d81611c18565b8114611c6857600080fd5b50565b600081359050611c7a81611c54565b92915050565b60008060408385031215611c9757611c96611a1e565b5b6000611ca585828601611c6b565b9250506020611cb685828601611bb6565b9150509250929050565b611cc981611b95565b82525050565b6000602082019050611ce46000830184611cc0565b92915050565b600080600060608486031215611d0357611d02611a1e565b5b6000611d1186828701611c6b565b9350506020611d2286828701611c6b565b9250506040611d3386828701611bb6565b9150509250925092565b600060208284031215611d5357611d52611a1e565b5b6000611d6184828501611c6b565b91505092915050565b611d7381611aad565b8114611d7e57600080fd5b50565b600081359050611d9081611d6a565b92915050565b60008060408385031215611dad57611dac611a1e565b5b6000611dbb85828601611c6b565b9250506020611dcc85828601611d81565b9150509250929050565b600080fd5b600080fd5b7f4e487b7100000000000000000000000000000000000000000000000000000000600052604160045260246000fd5b611e1882611b29565b810181811067ffffffffffffffff82111715611e3757611e36611de0565b5b80604052505050565b6000611e4a611a14565b9050611e568282611e0f565b919050565b600067ffffffffffffffff821115611e7657611e75611de0565b5b611e7f82611b29565b9050602081019050919050565b82818337600083830152505050565b6000611eae611ea984611e5b565b611e40565b905082815260208101848484011115611eca57611ec9611ddb565b5b611ed5848285611e8c565b509392505050565b600082601f830112611ef257611ef1611dd6565b5b8135611f02848260208601611e9b565b91505092915050565b60008060008060808587031215611f2557611f24611a1e565b5b6000611f3387828801611c6b565b9450506020611f4487828801611c6b565b9350506040611f5587828801611bb6565b925050606085013567ffffffffffffffff811115611f7657611f75611a23565b5b611f8287828801611edd565b91505092959194509250565b60008060408385031215611fa557611fa4611a1e565b5b6000611fb385828601611c6b565b9250506020611fc485828601611c6b565b9150509250929050565b7f4e487b7100000000000000000000000000000000000000000000000000000000600052602260045260246000fd5b6000600282049050600182168061201557607f821691505b60208210810361202857612027611fce565b5b50919050565b7f4e487b7100000000000000000000000000000000000000000000000000000000600052601160045260246000fd5b600061206882611b95565b915061207383611b95565b925082820190508082111561208b5761208a61202e565b5b92915050565b7f457863656564656420746865206c696d69740000000000000000000000000000600082015250565b60006120c7601283611aee565b91506120d282612091565b602082019050919050565b600060208201905081810360008301526120f6816120ba565b9050919050565b7f4e6f7420656e6f75676820746f6b656e73206c65667400000000000000000000600082015250565b6000612133601683611aee565b915061213e826120fd565b602082019050919050565b6000602082019050818103600083015261216281612126565b9050919050565b600061217482611b95565b915061217f83611b95565b925082820261218d81611b95565b915082820484148315176121a4576121a361202e565b5b5092915050565b7f4e6f7420656e6f7567682065746865722073656e740000000000000000000000600082015250565b60006121e1601583611aee565b91506121ec826121ab565b602082019050919050565b60006020820190508181036000830152612210816121d4565b9050919050565b600081905092915050565b600061222d82611ae3565b6122378185612217565b9350612247818560208601611aff565b80840191505092915050565b600061225f8285612222565b915061226b8284612222565b91508190509392505050565b7f4f776e61626c653a206e6577206f776e657220697320746865207a65726f206160008201527f6464726573730000000000000000000000000000000000000000000000000000602082015250565b60006122d3602683611aee565b91506122de82612277565b604082019050919050565b60006020820190508181036000830152612302816122c6565b9050919050565b7f4f776e61626c653a2063616c6c6572206973206e6f7420746865206f776e6572600082015250565b600061233f602083611aee565b915061234a82612309565b602082019050919050565b6000602082019050818103600083015261236e81612332565b9050919050565b600081519050919050565b600082825260208201905092915050565b600061239c82612375565b6123a68185612380565b93506123b6818560208601611aff565b6123bf81611b29565b840191505092915050565b60006080820190506123df6000830187611c2a565b6123ec6020830186611c2a565b6123f96040830185611cc0565b818103606083015261240b8184612391565b905095945050505050565b60008151905061242581611a54565b92915050565b60006020828403121561244157612440611a1e565b5b600061244f84828501612416565b9150509291505056fea26469706673582212207043b7a9403e6c83eece2a70c1f58d7f29dae01144a67411dc80a0e0e8e51e4564736f6c63430008110033697066733a2f2f6261667962656961616c613534776c6e636d64716a7768616435677a616a64366468687034377a6c656f6a6636336767756365356f367764797a712f",
    "linkReferences": {},
    "deployedLinkReferences": {}
}